:020000020000FC
:040000000C9422003A
:040010000C945700F5
:100040000C9474000FEF0DBF18E01EBF00E000938A
:10005000C10000E007B90FEF08B904B90AB90BB93C
:10006000002702E00093680003E000936C0002E0C8
:1000700000931B0001E000936E0030E0A0E010E070
:1000800080E078945FEF6FEF77E00E946D00F1E021
:10009000E0E3449194912D9A4BB90E948C002D98E5
:1000A0002C9A6BB99BB90E948C002C98F4CF0E94BB
:1000B000600026B120FD1A9521FD139515B91895FC
:1000C0005A955030E9F75FEF6A956030C9F76FEFE6
:1000D0007A957030A9F777E0089503E004BD05E054
:1000E00005BD04E606BD089504E606BD3395343625
:1000F00009F0189583958A3021F03327E3954491D0
:100100001895A395A63069F08827F1E0E0E34491C3
:10011000EA0F9491E0E318955A955030E9F75FEFB4
:1001200008958827AA27F1E0E0E344919491189577
:10013000C0F9A430999282F880908883C6A1868EF7
:00000001FF
